:0F02CA00636C6F636B0020203A20203A202000E5
:1000A2001202B61202747BFF7A0279CA7D017F01C5
:1000B2001202167BFF7A0279D07D017F02120216AC
:1000C200E51BFB7A00750C027D017F02120257E5E7
:1000D2001CFB7A00750C027D047F02120257E51A9E
:0F00E200FB7A00750C027D077F0212025780D156
:03000B000200F1FF
:0400F100C0E0C0D0DB
:1000F500758A66758CFC0519E51970020518C39497
:10010500E8E51894034027751800751900051AE5E8
:100115001A943C4019751A00051CE51C943C400EC8
:0E012500751C00051BE51B94184003751B009C
:05013300D0D0D0E03245
:100274005389F0438901758A66758CFCC28DD28CD2
:07028400D2A9D2AFC2B922DA
:1002A100EF1FAC0670011E4C600A7D027CEFDCFE84
:0402B100DDFC80EC04
:0102B5002226
:0602D900C2A58F80D2A730
:0802DF007F027EEFDEFEDFFC72
:0102E70022F4
:0A02F400C2A61202D9C2A70202DF5F
:10023900CFCDCFCECCCE12004D7C007D0A12004D21
:04024900ED2430FF71
:0A024D00D2A61202D9C2A70202DFF6
:10028B00AE07BE0104ED148006BE0209ED243F4407
:06029B0080FF1202F422B4
:1002B6007F381202F47F0C1202F47F061202F47FDA
:0402C600010202F43B
:0A02FE00AC0312028BAF0402024DA4
:060216008B088A09890A29
:10021C0012028BE4FDAB08AA09A90A8D8275830032
:0C022C0012000EFF600612024D0D80E96A
:0102380022A3
:0C01E3007F0AEA24FFFDE434FFFC7E00EC
:0801EF008E0D8F0E8C0F8D1098
:1001F7007F017E00E4FBEBC39510E50F6480F87484
:0E0207008098500AAC0DAD0E12003B0B80E843
:0102150022C6
:040257008A0A8B0B79
:10025B0012028BAA0CEAD39400400D1201E3AC0AF4
:08026B00AD0B1202391A80EDFF
:010273002268
:1001380012028BC3EA64809480400B7F2B12024D1D
:100148008A168B17800E7F2D12024DC3E49BF5177C
:10015800E49AF516AA15EAD39400400D1201E3AC0F
:0901680016AD171202391A80EDE0
:01017100226B
:040172008A1F8B2035
:1001760012028BAA21EAD3940040297F101201E5CE
:10018600AC1FAD20CFCDCFCECCCE12004DEF540F4D
:10019600FEC3940AEE5004243080022437FF120274
:0401A6004D1A80D19D
:0101AA002232
:0401AB008A248B25F2
:1001AF0012028BAA26EAD394004028EA24FFFDE42A
:1001BF0034FFFC7F027E001201EFAC24AD25CFCDC2
:1001CF00CFCECCCE12004DEF54012430FF12024D92
:0301DF001A80D2B1
:0101E20022FA
:030000000202E811
:0C02E800787FE4F6D8FD7581260200A2A4
:10000E00BB010CE58229F582E5833AF583E02250A7
:10001E0006E92582F8E622BBFE06E92582F8E222F1
:0D002E00E58229F582E5833AF583E493220B
:10003B00EF8DF0A4A8F0CF8CF0A428CE8DF0A42ED9
:02004B00FE2293
:10004D00BC000BBE0029EF8DF084FFADF022E4CC97
:10005D00F875F008EF2FFFEE33FEEC33FCEE9DEC60
:10006D00984005FCEE9DFE0FD5F0E9E4CEFD22EDA6
:10007D00F8F5F0EE8420D21CFEADF075F008EF2FF0
:10008D00FFED33FD4007985006D5F0F222C398FDE1
:05009D000FD5F0EA227E
:00000001FF
