:10043A0050617373776F7264006F6B20006572721C
:05044A0000202020004D
:10018C001204647BFF7A04793A7D017F011203C665
:10019C001200038F18E51860F7D3940A5033C3E5A7
:1001AC001A9404E51994005028AE1BAF1C7C007DFA
:1001BC000A1202818E1B8F1CE51875F00A84E5F07B
:1001CC00251CF51CE4351BF51B051AE51A700205F8
:1001DC0019750C04AB1CAA1B7D017F02120407E5E8
:1001EC0018640B7036E51CB4290DE51BB409087BAB
:1001FC00FF7A04794380067BFF7A0479477D0E7F72
:10020C00011203C6E4F51BF51CF519F51A750C045F
:10021C00AB1CAA1B7D017F02120407E518640C605D
:10022C000302019CF51BF51CF519F51A750C04ABB2
:10023C001CAA1B7D017F021204077A047B4B7D0EE6
:08024C007F0112040702019C6E
:10044F00EF1FAC0670011E4C600A7D027CEFDCFED4
:04045F00DDFC80EC54
:010463002276
:06047800C2A58F80D2A78F
:08047E007F027EEFDEFEDFFCD1
:010486002253
:0A049300C2A6120478C2A702047E7C
:1003E900CFCDCFCECCCE1202937C007D0A120293E0
:0403F900ED2430FFC0
:0A03FD00D2A6120478C2A702047E03
:10042400AE07BE0104ED148006BE0209ED243F446C
:0604340080FF1204932278
:100464007F381204937F0C1204937F061204937F47
:0404740001020493EA
:0A049D00AC03120424AF040203FDB7
:0603C6008B088A09890A78
:1003CC00120424E4FDAB08AA09A90A8D82758300E6
:0C03DC00120254FF60061203FD0D80E9C0
:0103E80022F2
:0C0393007F0AEA24FFFDE434FFFC7E003A
:08039F008E0D8F0E8C0F8D10E6
:1003A7007F017E00E4FBEBC39510E50F6480F874D2
:0E03B7008098500AAC0DAD0E1202810B80E84A
:0103C5002215
:040407008A0A8B0BC7
:10040B00120424AA0CEAD39400400D120393AC0AF5
:08041B00AD0B1203E91A80ED9C
:0104230022B6
:1002E800120424C3EA64809480400B7F2B1203FD20
:1002F8008A168B17800E7F2D1203FDC3E49BF5171A
:10030800E49AF516AA15EAD39400400D120393ACAB
:0903180016AD171203E91A80ED7D
:0103210022B9
:040322008A1F8B2083
:10032600120424AA21EAD3940040297F10120395CF
:10033600AC1FAD20CFCDCFCECCCE120293EF540F53
:10034600FEC3940AEE5004243080022437FF1203C1
:04035600FD1A80D13B
:01035A002280
:04035B008A248B2540
:10035F00120424AA26EAD394004028EA24FFFDE4DD
:10036F0034FFFC7F027E0012039FAC24AD25CFCD5E
:10037F00CFCECCCE120293EF54012430FF1203FDE7
:03038F001A80D2FF
:010392002248
:10000300E4F5087590FFC2932097137F14FE120442
:100013004F3097FD7F147E0012044F750801209620
:10002300147F147E0012044F3096FD7F147E00125D
:10003300044F7508052095147F147E0012044F3079
:1000430095FD7F147E0012044F7508092094147FD8
:10005300147E0012044F3094FD7F147E0012044F6F
:1000630075080D7590FFC2922097147F147E0012BD
:10007300044F3097FD7F147E0012044F7508022051
:1000830096147F147E0012044F3096FD7F147E0079
:1000930012044F7508062095147F147E0012044F36
:1000A3003095FD7F147E0012044F75080A209414C6
:1000B3007F147E0012044F3094FD7F147E001204DF
:1000C3004F75080E7590FFC2912097147F147E0020
:1000D30012044F3097FD7F147E0012044F750803FE
:1000E3002096147F147E0012044F3096FD7F147EF9
:1000F3000012044F7508072095147F147E00120424
:100103004F3095FD7F147E0012044F75080B209429
:10011300147F147E0012044F3094FD7F147E00126E
:10012300044F75080F7590FFC2902097147F147EBB
:100133000012044F3097FD7F147E0012044F7508A0
:10014300042096147F147E0012044F3096FD7F1412
:100153007E0012044F7508082095147F147E001248
:10016300044F3095FD7F147E0012044F75080C2058
:1001730094147F147E0012044F3094FD7F147E008C
:0801830012044F750810AF08CB
:01018B002251
:0300000002048770
:0C048700787FE4F6D8FD75812602018C18
:10025400BB010CE58229F582E5833AF583E022505F
:1002640006E92582F8E622BBFE06E92582F8E222A9
:0D027400E58229F582E5833AF583E49322C3
:10028100EF8DF0A4A8F0CF8CF0A428CE8DF0A42E91
:02029100FE224B
:10029300BC000BBE0029EF8DF084FFADF022E4CC4F
:1002A300F875F008EF2FFFEE33FEEC33FCEE9DEC18
:1002B300984005FCEE9DFE0FD5F0E9E4CEFD22ED5E
:1002C300F8F5F0EE8420D21CFEADF075F008EF2FA8
:1002D300FFED33FD4007985006D5F0F222C398FD99
:0502E3000FD5F0EA2236
:00000001FF
